:100000000C942A000C94410C0C94740C0C94A70CC6
:100010000C9447000C9447000C9447000C94470044
:100020000C9447000C9447000C9451160C943F1606
:100030000C9447000C94B4170C94E7170C941A18FE
:100040000C9447000C9447000C9447000C94470014
:100050000C94470011241FBECFE5D8E0DEBFCDBF12
:1000600012E0A0E6B0E0E8E2F8E302C005900D92ED
:10007000A837B107D9F712E0A8E7B2E001C01D9296
:10008000A838B107E1F70E9470180C94121C0C9468
:100090000000EF92FF920F931F937B018C0120E0F1
:1000A00030E040E05FE40E94490388238CF0C801FF
:1000B000B70120E030E040E05FE40E94C1010E940F
:1000C000A9039B01AC01205030404040504806C07D
:1000D000C801B7010E94A9039B01AC01B901CA0183
:1000E0001F910F91FF90EF900895A0E0B0E0EBE733
:1000F000F0E00C94DB1BDC012B01FA019C919230A7
:1001000008F439C1EB018881823008F433C194309E
:1001100069F4843009F02FC111969C91119789815F
:10012000981709F428C1A8E5B1E025C1843009F485
:1001300021C18230A9F4923009F01DC19A01AD01AC
:1001400088E0EA010990AE01E90109929E0181501F
:10015000C1F7E201898111969C918923818308C1AD
:10016000923009F407C112962D903C901397EB0141
:100170008A819B811496AD90BD90CD90DC901797AD
:10018000EC80FD800E811F819101281B390BB90184
:1001900037FF04C066277727621B730B6032710537
:1001A0000CF061C0121613066CF537014801062EDB
:1001B00004C096948794779467940A94D2F721E0C8
:1001C00030E040E050E004C0220F331F441F551FB1
:1001D0006A95D2F721503040404050402E213F21B7
:1001E00040235123211531054105510521F021E01E
:1001F00030E040E050E079018A01E628F72808293C
:1002000019293CC0232BD1F1260E371E350146019A
:10021000062E04C096948794779467940A94D2F734
:1002200021E030E040E050E004C0220F331F441FC3
:10023000551F6A95D2F721503040404050402A2146
:100240003B214C215D21211531054105510521F04E
:1002500021E030E040E050E059016A01A628B728CB
:10026000C828D9280BC0821593052CF01C01AA249C
:10027000BB24650103C0EE24FF24870111969C91E5
:10028000D20111968C91981709F445C0992339F041
:10029000A80197012A193B094C095D0906C0A6016E
:1002A00095012E193F09400B510B57FD08C01182D3
:1002B0003382228224833583468357831DC081E0A5
:1002C00081833382228288279927DC01821B930B4A
:1002D000A40BB50B84839583A683B7830DC0220F2F
:1002E000331F441F551F24833583468357838281E0
:1002F000938101979383828324813581468157813D
:10030000DA01C9010197A109B1098F5F9F4FAF4F72
:10031000BF4328F30BC0918333822282EA0CFB1C7B
:100320000C1D1D1DE482F5820683178383E0808304
:10033000248135814681578157FF1AC0C901AA27F8
:1003400097FDA095BA2F81709070A070B0705695EF
:10035000479537952795822B932BA42BB52B848318
:100360009583A683B7838281938101969383828349
:10037000DF0101C0D201CD01CDB7DEB7E2E10C94BF
:10038000F71BA0E2B0E0E7ECF1E00C94E71B698317
:100390007A838B839C832D833E834F835887E9E048
:1003A000EE2EF12CEC0EFD1ECE010196B7010E943F
:1003B0009A058E010F5E1F4FCE010596B8010E946F
:1003C0009A058A8991E089278A8BC701B801AE0115
:1003D000475E5F4F0E9475000E94C504A096E6E04C
:1003E0000C94031CA0E2B0E0E8EFF1E00C94E71BF2
:1003F00069837A838B839C832D833E834F835887C5
:10040000F9E0EF2EF12CEC0EFD1ECE010196B701A6
:100410000E949A058E010F5E1F4FCE010596B8010E
:100420000E949A05C701B801AE01475E5F4F0E9466
:1004300075000E94C504A096E6E00C94031CA0E29F
:10044000B0E0E5E2F2E00C94DB1B69837A838B83F6
:100450009C832D833E834F835887CE010196BE0136
:10046000675F7F4F0E949A05CE010596BE016F5EC1
:100470007F4F0E949A059985923088F08989823051
:10048000C8F0943019F4823051F404C0843029F457
:10049000923081F488E591E0C6C0923049F420E0C2
:1004A0009A858A89981321E02A87CE010996BBC0D4
:1004B000823049F420E09A858A89981321E02A8BBA
:1004C000CE014196B0C02D843E844F8458886D88FB
:1004D0007E888F88988CEE24FF248701AA24BB2471
:1004E000650140E050E060E070E0E0E0F0E0C10174
:1004F00081709070892BE9F0E60CF71C081D191D1E
:100500009A01AB012A0D3B1D4C1D5D1D80E090E062
:10051000A0E0B0E0E614F7040805190520F481E036
:1005200090E0A0E0B0E0BA01A901480F591F6A1F8E
:100530007B1FAA0CBB1CCC1CDD1C97FE08C081E0F5
:1005400090E0A0E0B0E0A82AB92ACA2ADB2A3196B6
:10055000E032F10549F0660C771C881C991C569412
:10056000479437942794C3CFFA85EA892B893C892D
:100570008B859C85280F391F2E5F3F4F17C0CA01FE
:1005800081709070892B61F016950795F794E79428
:1005900080E090E0A0E0B0E8E82AF92A0A2B1B2BC3
:1005A00076956795579547952F5F3F4F77FDE7CF36
:1005B0000CC0440F551F661F771F17FD4160EE0CDE
:1005C000FF1C001F111F21503040403090E05907A0
:1005D00090E0690790E4790760F32B8F3C8FDB0193
:1005E000CA018F779070A070B07080349105A1051A
:1005F000B10561F447FD0AC0E114F10401051105DC
:1006000029F0405C5F4F6F4F7F4F40781A8EFE1786
:1006100011F081E08A8F4D8F5E8F6F8F78A383E01A
:10062000898FCE0149960E94C504A096E2E10C9400
:10063000F71BA8E1B0E0EFE1F3E00C94E71B69835E
:100640007A838B839C832D833E834F83588789E0F5
:10065000E82EF12CEC0EFD1ECE010196B7010E9492
:100660009A058E010F5E1F4FCE010596B8010E94BC
:100670009A058985823040F08989823028F0C70147
:10068000B8010E94120601C08FEF6896E6E00C9454
:10069000031CA8E1B0E0EFE4F3E00C94E71B6983EE
:1006A0007A838B839C832D833E834F83588789E095
:1006B000E82EF12CEC0EFD1ECE010196B7010E9432
:1006C0009A058E010F5E1F4FCE010596B8010E945C
:1006D0009A058985823040F08989823028F0C701E7
:1006E000B8010E94120601C08FEF6896E6E00C94F4
:1006F000031CA8E1B0E0EFE7F3E00C94E71B69838B
:100700007A838B839C832D833E834F83588789E034
:10071000E82EF12CEC0EFD1ECE010196B7010E94D1
:100720009A058E010F5E1F4FCE010596B8010E94FB
:100730009A058985823040F08989823028F0C70186
:10074000B8010E94120601C081E06896E6E00C94B0
:10075000031CACE0B0E0EFEAF3E00C94EB1B698320
:100760007A838B839C83CE010196BE016B5F7F4FA2
:100770000E949A058D81823061F1823050F184307F
:1007800021F48E81882351F12EC02F81388537FDC9
:1007900020C06E812F3131051CF06623F9F023C093
:1007A0008EE190E0821B930B29853A854B855C8511
:1007B00004C056954795379527958A95D2F76623B5
:1007C000B1F050954095309521953F4F4F4F5F4F79
:1007D0000EC020E030E040E050E009C02FEF3FEFD6
:1007E0004FEF5FE704C020E030E040E050E8B9019F
:1007F000CA012C96E2E00C94071CA8E0B0E0E3E00C
:10080000F4E00C94E31B7B018C01611571058105FB
:10081000910519F482E0898360C083E089838EE1C9
:10082000C82ED12CDC82CB82ED82FE820F8318870A
:10083000C801B7010E947604FC013197F7FF3BC065
:10084000222733272E1B3F0B57016801022E04C0BD
:10085000D694C794B794A7940A94D2F740E050E096
:1008600060E070E081E090E0A0E0B0E004C0880FBC
:10087000991FAA1FBB1F2A95D2F70197A109B10999
:100880008E219F21A023B1230097A105B10521F05E
:1008900041E050E060E070E04A295B296C297D2945
:1008A0004D835E836F8378878EE190E08E1B9F0B74
:1008B0009C838B8312C0309781F00E2E04C0EE0C07
:1008C000FF1C001F111F0A94D2F7ED82FE820F83D6
:1008D0001887CE1ADF0ADC82CB821A82CE010196FB
:1008E0000E94C5042896EAE00C94FF1BEF92FF9249
:1008F0000F931F937B018C0180E0E81680E0F806DF
:1009000081E0080780E0180788F48FEFE816F1040B
:100910000105110531F028F088E090E0A0E0B0E09A
:1009200017C080E090E0A0E0B0E012C080E0E816E0
:1009300080E0F80680E0080781E0180728F088E1E9
:1009400090E0A0E0B0E004C080E190E0A0E0B0E082
:1009500020E230E040E050E0281B390B4A0B5B0BF3
:1009600004C016950795F794E7948A95D2F7F70196
:10097000E05AFE4F8081281B310941095109C90104
:100980001F910F91FF90EF900895DF92EF92FF92E9
:100990000F931F93FC01E480F58006811781D180BD
:1009A0008081823048F480E090E0A0E1B0E0E82A65
:1009B000F92A0A2B1B2BA5C0843009F49FC0823072
:1009C00021F4EE24FF24870105C0E114F1040105A0
:1009D000110519F4E0E0F0E096C0628173819FEFA9
:1009E000623879070CF05BC022E83FEF261B370B1B
:1009F0002A3131052CF020E030E040E050E02AC000
:100A0000B801A701022E04C07695679557954795C2
:100A10000A94D2F781E090E0A0E0B0E004C0880F33
:100A2000991FAA1FBB1F2A95D2F70197A109B109E7
:100A30008E219F21A023B1230097A105B10521F0AC
:100A400081E090E0A0E0B0E09A01AB01282B392BC7
:100A50004A2B5B2BDA01C9018F779070A070B070C0
:100A600080349105A105B10539F427FF09C0205C48
:100A70003F4F4F4F5F4F04C0215C3F4F4F4F5F4F81
:100A8000E0E0F0E02030A0E03A07A0E04A07A0E470
:100A90005A0710F0E1E0F0E079018A0127C06038E0
:100AA000710564F5FB01E158FF4FD801C7018F774D
:100AB0009070A070B07080349105A105B10539F433
:100AC000E7FE0DC080E490E0A0E0B0E004C08FE35A
:100AD00090E0A0E0B0E0E80EF91E0A1F1B1F17FF10
:100AE00005C016950795F794E794319687E016951B
:100AF0000795F794E7948A95D1F705C0EE24FF2473
:100B00008701EFEFF0E06E2F679566276795902FCE
:100B10009F77D794DD24D7948E2F8695492F462B27
:100B2000582F5D29B701CA011F910F91FF90EF90D7
:100B3000DF900895FC01DB01408151812281622F09
:100B40006F7770E0221F2227221F9381892F880F41
:100B5000822B282F30E0991F9927991F11969C937B
:100B6000119721153105A9F541155105610571054B
:100B700011F482E037C082E89FEF13969C938E9326
:100B800012979A01AB0167E0220F331F441F551FD4
:100B90006A95D1F783E08C930DC0220F331F441F59
:100BA000551F12968D919C911397019713969C93C4
:100BB0008E931297203080E0380780E0480780E469
:100BC000580758F314962D933D934D935C931797C4
:100BD00008952F3F310579F44115510561057105DF
:100BE00019F484E08C93089564FF03C081E08C9332
:100BF00012C01C9210C02F57304013963C932E9376
:100C0000129783E08C9387E0440F551F661F771F70
:100C10008A95D1F7706414964D935D936D937C9390
:100C2000179708951F93DC01FB019C91923008F403
:100C300047C08081823008F443C0943051F411964B
:100C40001C91843099F58181682F70E0611B7109D6
:100C50003FC0843021F0923031F48230B9F181818B
:100C6000882389F12DC011961C9111978230F1F0E3
:100C700081811817D9F412962D913C911397828196
:100C800093818217930794F028173907BCF01496C4
:100C90008D919D910D90BC91A02D2481358146812F
:100CA0005781281739074A075B0718F4112341F0C9
:100CB0000AC082179307A407B50740F4112319F05F
:100CC00061E070E005C06FEF7FEF02C060E070E0B0
:100CD000CB011F910895DF93CF93CDB7DEB7A7E285
:100CE000B0E0E7E2F0E0808180648C93A7E2B0E0BE
:100CF000E7E2F0E080818F778C93A7E2B0E0E7E253
:100D0000F0E080818F7D8C93A6E2B0E0E6E2F0E037
:100D100080818F7D8C93A6E2B0E0E6E2F0E08081F6
:100D20008E7F8C93A6E2B0E0E6E2F0E08081826004
:100D30008C93A6E2B0E0E6E2F0E0808184608C93E0
:100D4000A6E2B0E0E6E2F0E0808180688C93CF918B
:100D5000DF910895DF93CF9300D00F92CDB7DEB728
:100D60008B831A8219828B81803270F5A7E2B0E002
:100D7000E7E2F0E08081807E8C93A7E2B0E0E7E2DA
:100D8000F0E090818B81892B8C93A6E2B0E0E6E2C3
:100D9000F0E0808180648C93E6E2F0E080818295CF
:100DA0008F70882F90E0817090700097A9F3A6E271
:100DB000B0E0E6E2F0E0808180618C93E4E2F0E074
:100DC000808191819A83898389819A810F900F9084
:100DD0000F90CF91DF910895DF93CF93CDB7DEB71A
:100DE000EAE3F0E01082E7E3F0E08FEF8083E4E3F2
:100DF000F0E01082E1E3F0E08FEF8083EBE3F0E0DE
:100E00001082E8E3F0E01082E5E3F0E01082E2E334
:100E1000F0E01082CF91DF910895DF93CF93CDB7AB
:100E2000DEB72D970FB6F894DEBF0FBECDBF898316
:100E30006A834B838981843008F008C18A818830B5
:100E400008F004C18B81823008F000C18981282F0D
:100E500030E03D872C878C859D858130910509F494
:100E60004FC02C853D85223031052CF48C859D8525
:100E7000009771F0EBC02C853D852230310509F4D7
:100E800077C08C859D858330910509F4A9C0DEC0AB
:100E90008B81282F30E03B872A878A859B850097A6
:100EA000D1F02A853B852130310509F0CFC0AAE376
:100EB000B0E0EAE3F0E08081482F8A81282F30E01B
:100EC00081E090E0022E02C0880F991F0A94E2F799
:100ED000842B8C93BBC0AAE3B0E0EAE3F0E080810E
:100EE000482F8A81282F30E081E090E0022E02C056
:100EF000880F991F0A94E2F7809584238C93A6C0EB
:100F00008B81282F30E0398728878885998500973D
:100F1000D1F0288539852130310509F097C0A7E344
:100F2000B0E0E7E3F0E08081482F8A81282F30E0AD
:100F300081E090E0022E02C0880F991F0A94E2F728
:100F4000842B8C9383C0A7E3B0E0E7E3F0E08081DB
:100F5000482F8A81282F30E081E090E0022E02C0E5
:100F6000880F991F0A94E2F7809584238C936EC0B2
:100F70008B81282F30E03F832E838E819F810097C5
:100F8000D1F02E813F812130310509F05FC0A4E30B
:100F9000B0E0E4E3F0E08081482F8A81282F30E040
:100FA00081E090E0022E02C0880F991F0A94E2F7B8
:100FB000842B8C934BC0A4E3B0E0E4E3F0E08081A9
:100FC000482F8A81282F30E081E090E0022E02C075
:100FD000880F991F0A94E2F7809584238C9336C07A
:100FE0008B81282F30E03D832C838C819D8100975D
:100FF000C9F02C813D812130310541F5A1E3B0E0FC
:10100000E1E3F0E08081482F8A81282F30E081E001
:1010100090E0022E02C0880F991F0A94E2F7842BF9
:101020008C9314C0A1E3B0E0E1E3F0E08081482FAD
:101030008A81282F30E081E090E0022E02C0880FE4
:10104000991F0A94E2F7809584238C932D960FB60E
:10105000F894DEBF0FBECDBFCF91DF910895DF932F
:10106000CF93CDB7DEB72D970FB6F894DEBF0FBE86
:10107000CDBF89836A834B838981843008F008C19E
:101080008A81883008F004C18B81823008F000C169
:101090008981282F30E03D872C878C859D85813084
:1010A000910509F44FC02C853D85223031052CF483
:1010B0008C859D85009771F0EBC02C853D85223095
:1010C000310509F477C08C859D858330910509F43D
:1010D000A9C0DEC08B81282F30E03B872A878A8514
:1010E0009B850097D1F02A853B852130310509F099
:1010F000CFC0ABE3B0E0EBE3F0E08081482F8A8122
:10110000282F30E081E090E0022E02C0880F991F66
:101110000A94E2F7842B8C93BBC0ABE3B0E0EBE323
:10112000F0E08081482F8A81282F30E081E090E034
:10113000022E02C0880F991F0A94E2F7809584233B
:101140008C93A6C08B81282F30E03987288788852B
:1011500099850097D1F0288539852130310509F02E
:1011600097C0A8E3B0E0E8E3F0E08081482F8A81EF
:10117000282F30E081E090E0022E02C0880F991FF6
:101180000A94E2F7842B8C9383C0A8E3B0E0E8E3F1
:10119000F0E08081482F8A81282F30E081E090E0C4
:1011A000022E02C0880F991F0A94E2F780958423CB
:1011B0008C936EC08B81282F30E03F832E838E81ED
:1011C0009F810097D1F02E813F812130310509F0B8
:1011D0005FC0A5E3B0E0E5E3F0E08081482F8A81BD
:1011E000282F30E081E090E0022E02C0880F991F86
:1011F0000A94E2F7842B8C934BC0A5E3B0E0E5E3BF
:10120000F0E08081482F8A81282F30E081E090E053
:10121000022E02C0880F991F0A94E2F7809584235A
:101220008C9336C08B81282F30E03D832C838C81BA
:101230009D810097C9F02C813D812130310541F518
:10124000A2E3B0E0E2E3F0E08081482F8A81282F1A
:1012500030E081E090E0022E02C0880F991F0A94CE
:10126000E2F7842B8C9314C0A2E3B0E0E2E3F0E059
:101270008081482F8A81282F30E081E090E0022E83
:1012800002C0880F991F0A94E2F7809584238C93FB
:101290002D960FB6F894DEBF0FBECDBFCF91DF9174
:1012A0000895DF93CF9300D000D0CDB7DEB7898308
:1012B0006A838981843008F072C08A81883008F09E
:1012C0006EC08981282F30E03C832B838B819C81E9
:1012D0008130910549F12B813C81223031052CF47C
:1012E0008B819C81009761F05AC02B813C81223018
:1012F000310571F18B819C8183309105E9F14FC0FB
:10130000ABE3B0E0EBE3F0E08081482F8A81282F47
:1013100030E081E090E0022E02C0880F991F0A940D
:10132000E2F784278C933BC0A8E3B0E0E8E3F0E069
:101330008081482F8A81282F30E081E090E0022EC2
:1013400002C0880F991F0A94E2F784278C9327C064
:10135000A5E3B0E0E5E3F0E08081482F8A81282F03
:1013600030E081E090E0022E02C0880F991F0A94BD
:10137000E2F784278C9313C0A2E3B0E0E2E3F0E04D
:101380008081482F8A81282F30E081E090E0022E72
:1013900002C0880F991F0A94E2F784278C930F905C
:1013A0000F900F900F90CF91DF910895DF93CF931F
:1013B00000D000D00F92CDB7DEB78A836B838A81CD
:1013C000843008F06BC08B81883008F067C08A8158
:1013D000282F30E03D832C834C815D8141305105C5
:1013E00041F18C819D818230910534F42C813D81C5
:1013F0002115310561F052C04C815D8142305105AB
:1014000051F18C819D8183309105B9F147C0E9E3A9
:10141000F0E08081282F30E08B81882F90E0A901B7
:1014200002C0559547958A95E2F7CA018170898374
:1014300035C0E6E3F0E08081282F30E08B81882FF3
:1014400090E0A90102C0559547958A95E2F7CA0137
:101450008170898323C0E3E3F0E08081282F30E0AE
:101460008B81882F90E0A90102C0559547958A95F8
:10147000E2F7CA018170898311C0E0E3F0E0808166
:10148000282F30E08B81882F90E0A90102C055956C
:1014900047958A95E2F7CA018170898389810F9007
:1014A0000F900F900F900F90CF91DF910895DF93E1
:1014B000CF9300D000D0CDB7DEB789836A8389810E
:1014C000843090F58981282F30E03C832B838B81F9
:1014D0009C8181309105D1F02B813C8122303105F6
:1014E0002CF48B819C81009761F01EC02B813C8184
:1014F0002230310581F08B819C818330910581F010
:1015000013C0EAE3F0E08A8180830EC0E7E3F0E0F5
:101510008A81808309C0E4E3F0E08A81808304C08B
:10152000E1E3F0E08A8180830F900F900F900F909D
:10153000CF91DF910895DF93CF9300D000D0CDB746
:10154000DEB789836A838981843090F58981282F69
:1015500030E03C832B838B819C8181309105D1F0DD
:101560002B813C81223031052CF48B819C810097AA
:1015700061F01EC02B813C812230310581F08B81CE
:101580009C818330910581F013C0EBE3F0E08A8108
:1015900080830EC0E8E3F0E08A81808309C0E5E340
:1015A000F0E08A81808304C0E2E3F0E08A818083F6
:1015B0000F900F900F900F90CF91DF910895DF93D0
:1015C000CF9300D000D000D0CDB7DEB789836A8337
:1015D0008981833008F05EC08A81843008F05AC067
:1015E0008981282F30E03E832D838D819E8181303B
:1015F0009105D1F02D813E812230310561F18D813F
:101600009E81009709F046C0A5E5B0E0E5E5F0E071
:1016100080818C7F8C93A5E5B0E0E5E5F0E09081DA
:101620008A81892B8C9336C0A5E5B0E0E5E5F0E032
:101630008081837F8C93A5E5B0E0E5E5F0E08081D3
:10164000282F8A81882F90E0880F991F880F991F73
:10165000822B8C931FC08A81282F30E03C832B8300
:101660008B819C818230910531F02B813C8123302C
:10167000310549F00FC0A4E5B0E0E4E5F0E0808179
:101680008F7B8C9307C0A4E5B0E0E4E5F0E08081B7
:1016900080648C9326960FB6F894DEBF0FBECDBF44
:1016A000CF91DF910895DF93CF9300D00F92CDB704
:1016B000DEB789838981833050F58981282F30E016
:1016C0003B832A838A819B818130910589F02A811D
:1016D0003B8122303105A1F08A819B810097B9F4CA
:1016E000ABE5B0E0EBE5F0E0808180648C930FC067
:1016F000ABE5B0E0EBE5F0E0808180688C9307C05B
:10170000ABE5B0E0EBE5F0E0808180628C930F9078
:101710000F900F90CF91DF910895DF93CF9300D07A
:101720000F92CDB7DEB789838981833050F58981E7
:10173000282F30E03B832A838A819B818130910569
:1017400089F02A813B8122303105A1F08A819B8179
:101750000097B9F4ABE5B0E0EBE5F0E080818F7B7A
:101760008C930FC0ABE5B0E0EBE5F0E080818F77C4
:101770008C9307C0ABE5B0E0EBE5F0E080818F7DB6
:101780008C930F900F900F90CF91DF910895DF937E
:10179000CF9300D00F92CDB7DEB789838981833094
:1017A00050F58981282F30E03B832A838A819B81F1
:1017B0008130910589F02A813B8122303105A1F0E9
:1017C0008A819B810097B9F4AAE5B0E0EAE5F0E0F0
:1017D000808180648C930FC0AAE5B0E0EAE5F0E078
:1017E000808180688C9307C0AAE5B0E0EAE5F0E06C
:1017F000808180628C930F900F900F90CF91DF913A
:101800000895DF93CF9300D000D00F92CDB7DEB70D
:1018100089837B836A838981833058F58A819B81A0
:10182000009739F18981282F30E03D832C838C810A
:101830009D818130910581F02C813D8122303105DF
:1018400091F08C819D810097A1F48A819B81909376
:101850007902809378020DC08A819B8190937B02EC
:1018600080937A0206C08A819B8190937D02809347
:101870007C020F900F900F900F900F90CF91DF91FF
:1018800008951F920F920FB60F9211242F933F933A
:101890004F935F936F937F938F939F93AF93BF9378
:1018A000EF93FF93DF93CF93CDB7DEB780917802AC
:1018B00090917902009729F0E0917802F0917902F5
:1018C0000995CF91DF91FF91EF91BF91AF919F91DA
:1018D0008F917F916F915F914F913F912F910F90D9
:1018E0000FBE0F901F9018951F920F920FB60F9278
:1018F00011242F933F934F935F936F937F938F9315
:101900009F93AF93BF93EF93FF93DF93CF93CDB7A5
:10191000DEB780917A0290917B02009729F0E091E6
:101920007A02F0917B020995CF91DF91FF91EF91BF
:10193000BF91AF919F918F917F916F915F914F91E7
:101940003F912F910F900FBE0F901F9018951F92EF
:101950000F920FB60F9211242F933F934F935F93E3
:101960006F937F938F939F93AF93BF93EF93FF9367
:10197000DF93CF93CDB7DEB780917C0290917D024B
:10198000009729F0E0917C02F0917D020995CF91BA
:10199000DF91FF91EF91BF91AF919F918F917F91D7
:1019A0006F915F914F913F912F910F900FBE0F90CC
:1019B0001F901895DF93CF93CDB7DEB7AFE5B0E0BA
:1019C000EFE5F0E0808180688C93CF91DF910895FE
:1019D000DF93CF93CDB7DEB7AFE5B0E0EFE5F0E052
:1019E00080818F778C93CF91DF910895DF93CF9390
:1019F000CDB7DEB763970FB6F894DEBF0FBECDBF8D
:101A00008FEF8B8B1A8A198A1F861A8ADDC08A8902
:101A1000882F90E0FC01E059FD4F908180E0692F14
:101A200040E00E942F08198AB9C08989882F90E068
:101A3000FC01EC58FD4F908180E0692F0E94D6098F
:101A4000888B8889882309F0A6C080E090E0A0EF09
:101A5000B1E48B879C87AD87BE876B857C858D8540
:101A60009E8520E030E04AEF54E40E941F02DC0132
:101A7000CB018F839887A987BA876F8178858985FD
:101A80009A8520E030E040E85FE30E9479038823F4
:101A90002CF481E090E09E838D833FC06F81788538
:101AA00089859A8520E03FEF4FE757E40E941903AC
:101AB00018164CF56B857C858D859E8520E030E081
:101AC00040E251E40E941F02DC01CB01BC01CD01C8
:101AD0000E944900DC01CB019E838D830FC088ECFE
:101AE00090E09C838B838B819C810197F1F79C8391
:101AF0008B838D819E8101979E838D838D819E81B5
:101B0000009769F714C06F81788589859A850E944E
:101B10004900DC01CB019E838D838D819E819A8358
:101B2000898389819A810197F1F79A8389838989C9
:101B3000882F90E0FC01EC58FD4F908180E0692FE8
:101B40000E94D609888B8889882329F50CC0898949
:101B5000882F90E0FC01EC58FD4F908180E0692FC8
:101B60000E94D609888B8889882389F38A89482F1F
:101B700050E08989282F30E0CA01880F991F880F0B
:101B8000991F820F931FFC01E05AFD4F80818B8BC0
:101B900081E08F8707C089898F5F898B898984302D
:101BA00008F443CF8A89882F90E0FC01E059FD4F6B
:101BB000908180E0692F41E00E942F088F8581305D
:101BC00039F08A898F5F8A8B8A89843008F41FCF25
:101BD0008B8963960FB6F894DEBF0FBECDBFCF9151
:101BE000DF910895DF93CF93CDB7DEB72F970FB670
:101BF000F894DEBF0FBECDBF8F8782E060E040E08B
:101C00000E942F0882E061E040E00E942F0883E0FC
:101C10006F850E949B0A82E062E040E00E942F08EC
:101C200080E090E0A0E0B0E48B879C87AD87BE8722
:101C30006B857C858D859E8520E030E04AEF54E4FD
:101C40000E941F02DC01CB018F839887A987BA8786
:101C50006F81788589859A8520E030E040E85FE3F0
:101C60000E94790388232CF481E090E09E838D8389
:101C70003FC06F81788589859A8520E03FEF4FE7E7
:101C800057E40E94190318164CF56B857C858D85E9
:101C90009E8520E030E040E251E40E941F02DC011A
:101CA000CB01BC01CD010E944900DC01CB019E8328
:101CB0008D830FC088EC90E09C838B838B819C810B
:101CC0000197F1F79C838B838D819E8101979E8381
:101CD0008D838D819E81009769F714C06F8178850F
:101CE00089859A850E944900DC01CB019E838D8302
:101CF0008D819E819A83898389819A810197F1F7E9
:101D00009A83898382E062E041E00E942F082F9647
:101D10000FB6F894DEBF0FBECDBFCF91DF9108950F
:101D2000DF93CF93CDB7DEB72F970FB6F894DEBF12
:101D30000FBECDBF8F8782E060E041E00E942F0898
:101D400082E061E040E00E942F0883E06F850E94FE
:101D50009B0A82E062E040E00E942F0880E090E071
:101D6000A0E0B0E48B879C87AD87BE876B857C85C0
:101D70008D859E8520E030E04AEF54E40E941F02EA
:101D8000DC01CB018F839887A987BA876F8178851B
:101D900089859A8520E030E040E85FE30E9479037E
:101DA00088232CF481E090E09E838D833FC06F8177
:101DB000788589859A8520E03FEF4FE757E40E94B8
:101DC000190318164CF56B857C858D859E8520E062
:101DD00030E040E251E40E941F02DC01CB01BC0173
:101DE000CD010E944900DC01CB019E838D830FC091
:101DF00088EC90E09C838B838B819C810197F1F729
:101E00009C838B838D819E8101979E838D838D81A1
:101E10009E81009769F714C06F81788589859A85BE
:101E20000E944900DC01CB019E838D838D819E81C0
:101E30009A83898389819A810197F1F79A838983AB
:101E400082E062E041E00E942F082F960FB6F894DE
:101E5000DEBF0FBECDBFCF91DF910895DF93CF934B
:101E6000CDB7DEB7E8970FB6F894DEBF0FBECDBF93
:101E700080E090E0A0E0B2E48DAB9EABAFABB8AF3A
:101E80006DA97EA98FA998AD20E030E04AEF54E417
:101E90000E941F02DC01CB0189AB9AABABABBCABA0
:101EA00069A97AA98BA99CA920E030E040E85FE30A
:101EB0000E94790388232CF481E090E098AB8FA7EF
:101EC0003FC069A97AA98BA99CA920E03FEF4FE701
:101ED00057E40E94190318164CF56DA97EA98FA925
:101EE00098AD20E030E040E251E40E941F02DC01A6
:101EF000CB01BC01CD010E944900DC01CB0198ABB4
:101F00008FA70FC088EC90E09EA78DA78DA59EA5FA
:101F10000197F1F79EA78DA78FA598A9019798AB78
:101F20008FA78FA598A9009769F714C069A97AA906
:101F30008BA99CA90E944900DC01CB0198AB8FA71B
:101F40008FA598A99CA78BA78BA59CA50197F1F7B6
:101F50009CA78BA788E30E94F20D80E090E0A0E8A8
:101F6000BFE38FA398A7A9A7BAA76FA178A589A552
:101F70009AA520E030E04AEF54E40E941F02DC0101
:101F8000CB018BA39CA3ADA3BEA36BA17CA18DA110
:101F90009EA120E030E040E85FE30E9479038823BF
:101FA0002CF481E090E09AA389A33FC06BA17CA1AF
:101FB0008DA19EA120E03FEF4FE757E40E94190357
:101FC00018164CF56FA178A589A59AA520E030E0F8
:101FD00040E251E40E941F02DC01CB01BC01CD01B3
:101FE0000E944900DC01CB019AA389A30FC088ECB1
:101FF00090E098A38F8F8F8D98A10197F1F798A308
:102000008F8F89A19AA101979AA389A389A19AA1E7
:10201000009769F714C06BA17CA18DA19EA10E94BD
:102020004900DC01CB019AA389A389A19AA19E8FC3
:102030008D8F8D8D9E8D0197F1F79E8F8D8F8FE007
:102040000E94F20D80E090E0A0E8BFE3898F9A8FB4
:10205000AB8FBC8F698D7A8D8B8D9C8D20E030E0AD
:102060004AEF54E40E941F02DC01CB018D8B9E8B52
:10207000AF8BB88F6D897E898F89988D20E030E095
:1020800040E85FE30E94790388232CF481E090E02C
:102090009C8B8B8B3FC06D897E898F89988D20E0CA
:1020A0003FEF4FE757E40E94190318164CF5698D6E
:1020B0007A8D8B8D9C8D20E030E040E251E40E94CF
:1020C0001F02DC01CB01BC01CD010E944900DC01F3
:1020D000CB019C8B8B8B0FC088EC90E09A8B898B0B
:1020E00089899A890197F1F79A8B898B8B899C89C9
:1020F00001979C8B8B8B8B899C89009769F714C007
:102100006D897E898F89988D0E944900DC01CB0101
:102110009C8B8B8B8B899C89988B8F878F859889DB
:102120000197F1F7988B8F8781E00E94F20D80E094
:1021300090E0A0E0B0E48B879C87AD87BE876B857D
:102140007C858D859E8520E030E04AEF54E40E9436
:102150001F02DC01CB018F839887A987BA876F8123
:10216000788589859A8520E030E040E85FE30E9429
:10217000790388232CF481E090E09E838D833FC017
:102180006F81788589859A8520E03FEF4FE757E496
:102190000E94190318164CF56B857C858D859E85EC
:1021A00020E030E040E251E40E941F02DC01CB015C
:1021B000BC01CD010E944900DC01CB019E838D83CF
:1021C0000FC088EC90E09C838B838B819C8101976E
:1021D000F1F79C838B838D819E8101979E838D83F4
:1021E0008D819E81009769F714C06F8178858985FC
:1021F0009A850E944900DC01CB019E838D838D81ED
:102200009E819A83898389819A810197F1F79A83C4
:10221000898386E00E94F20DE8960FB6F894DEBF3F
:102220000FBECDBFCF91DF910895DF93CF9300D044
:10223000CDB7DEB79A8389830BC0E981FA8120810B
:1022400089819A8101969A838983822F0E94900EB8
:10225000E981FA818081882381F70F900F90CF91D7
:10226000DF910895DF93CF93CDB7DEB72E970FB6EA
:10227000F894DEBF0FBECDBF81E00E94F20D80E07A
:1022800090E0A0E0B0E48B879C87AD87BE876B852C
:102290007C858D859E8520E030E04AEF54E40E94E5
:1022A0001F02DC01CB018F839887A987BA876F81D2
:1022B000788589859A8520E030E040E85FE30E94D8
:1022C000790388232CF481E090E09E838D833FC0C6
:1022D0006F81788589859A8520E03FEF4FE757E445
:1022E0000E94190318164CF56B857C858D859E859B
:1022F00020E030E040E251E40E941F02DC01CB010B
:10230000BC01CD010E944900DC01CB019E838D837D
:102310000FC088EC90E09C838B838B819C8101971C
:10232000F1F79C838B838D819E8101979E838D83A2
:102330008D819E81009769F714C06F8178858985AA
:102340009A850E944900DC01CB019E838D838D819B
:102350009E819A83898389819A810197F1F79A8373
:1023600089832E960FB6F894DEBF0FBECDBFCF91F6
:10237000DF910895DF93CF93CDB7DEB762970FB6A5
:10238000F894DEBF0FBECDBF8F87688B8F85282F57
:1023900030E03A8B298B89899A898130910531F017
:1023A00029893A892230310531F009C0888981585C
:1023B0000E94F20D04C0888981540E94F20D80E0D1
:1023C00090E0A0E8BFE38B879C87AD87BE876B85D5
:1023D0007C858D859E8520E030E04AEF54E40E94A4
:1023E0001F02DC01CB018F839887A987BA876F8191
:1023F000788589859A8520E030E040E85FE30E9497
:10240000790388232CF481E090E09E838D833FC084
:102410006F81788589859A8520E03FEF4FE757E403
:102420000E94190318164CF56B857C858D859E8559
:1024300020E030E040E251E40E941F02DC01CB01C9
:10244000BC01CD010E944900DC01CB019E838D833C
:102450000FC088EC90E09C838B838B819C810197DB
:10246000F1F79C838B838D819E8101979E838D8361
:102470008D819E81009769F714C06F817885898569
:102480009A850E944900DC01CB019E838D838D815A
:102490009E819A83898389819A810197F1F79A8332
:1024A000898362960FB6F894DEBF0FBECDBFCF9181
:1024B000DF910895DF93CF9300D000D0CDB7DEB782
:1024C0009C838B8381E090E09A8389838B819C81BC
:1024D000009731F580E30E94900E22C089819A8195
:1024E0009C01220F331FC901880F991F880F991F64
:1024F000F901E80FF91F8B819C812AE030E0B901D6
:102500000E94921B8E0F9F1F9A8389838B819C81CF
:102510002AE030E0B9010E94921BCB019C838B839F
:102520008B819C810097D1F614C089819A812AE021
:1025300030E0B9010E94921B805D0E94900E89815B
:102540009A812AE030E0B9010E94921BCB019A8364
:10255000898389819A818130910539F70F900F9095
:102560000F900F90CF91DF910895DF93CF9300D01C
:1025700000D0CDB7DEB79C838B8381E090E09A8357
:1025800089838B819C81992354F48DE20E94900E63
:102590008B819C81909581959F4F9C838B838B81B0
:1025A0009C81009731F580E30E94900E22C08981C2
:1025B0009A819C01220F331FC901880F991F880F30
:1025C000991FF901E80FF91F8B819C812AE030E007
:1025D000B9010E94A61B8E0F9F1F9A8389838B814E
:1025E0009C812AE030E0B9010E94A61BCB019C83AC
:1025F0008B838B819C810097D1F614C089819A814D
:102600002AE030E0B9010E94921B805D0E94900E8A
:1026100089819A812AE030E0B9010E94921BCB01A6
:102620009A83898389819A818130910539F70F9046
:102630000F900F900F90CF91DF910895DF93CF937C
:10264000CDB7DEB727970FB6F894DEBF0FBECDBF6C
:102650009C838B836D834E832F838D81882F90E0A5
:10266000880F991F880F991F880F991F8A838A8165
:1026700080648A838A810E94F20D19820EC089814A
:10268000282F30E08B819C81FC01E20FF31F8081B9
:102690000E94900E89818F5F89838981883078F3C9
:1026A0008E816F810E94BA118D810E94900E2796B3
:1026B0000FB6F894DEBF0FBECDBFCF91DF91089566
:1026C000DF93CF9300D00F92CDB7DEB789836A83B3
:1026D0004B8389816A814B810E942F080F900F9054
:1026E0000F90CF91DF910895DF93CF9300D0CDB7B6
:1026F000DEB789836A8389816A810E9451090F90BC
:102700000F90CF91DF910895DF93CF9300D000D049
:10271000CDB7DEB789836A838A81282F30E03C8376
:102720002B838B819C818430910509F455C02B81CA
:102730003C8125303105DCF48B819C818130910511
:1027400009F43BC02B813C81223031052CF48B8174
:102750009C81009769F15DC02B813C81223031055D
:1027600089F18B819C818330910589F152C02B8145
:102770003C812730310509F43EC08B819C81883033
:1027800091055CF42B813C812530310551F18B8121
:102790009C818630910551F13CC02B813C812830D1
:1027A000310571F18B819C818930910571F131C0C6
:1027B00089816FE30E949B0A2CC0898166E00E9498
:1027C0009B0A27C089816BE50E949B0A22C08981F0
:1027D0006FE40E949B0A1DC0898166E60E949B0AE5
:1027E00018C089816DE60E949B0A13C089816DE73C
:1027F0000E949B0A0EC0898167E00E949B0A09C063
:1028000089816FE70E949B0A04C089816FE60E945C
:102810009B0A0F900F900F900F90CF91DF9108952A
:10282000DF93CF93CDB7DEB762970FB6F894DEBFD4
:102830000FBECDBF888B7A8B698B1F8680C088893D
:102840006F850E94841389899A89CC01A0E0B0E049
:10285000BC01CD010E94FD03DC01CB018B879C876D
:10286000AD87BE876B857C858D859E8520E030E0B9
:102870004AEF54E40E941F02DC01CB018F8398874A
:10288000A987BA876F81788589859A8520E030E0AD
:1028900040E85FE30E94790388232CF481E090E014
:1028A0009E838D833FC06F81788589859A8520E0DE
:1028B0003FEF4FE757E40E94190318164CF56B855C
:1028C0007C858D859E8520E030E040E251E40E94C9
:1028D0001F02DC01CB01BC01CD010E944900DC01DB
:1028E000CB019E838D830FC088EC90E09C838B830B
:1028F0008B819C810197F1F79C838B838D819E81D5
:1029000001979E838D838D819E81009769F714C006
:102910006F81788589859A850E944900DC01CB0109
:102920009E838D838D819E819A83898389819A81FB
:102930000197F1F79A8389838F858F5F8F878F85C2
:102940008A3008F47CCF62960FB6F894DEBF0FBED3
:10295000CDBFCF91DF910895DF93CF93CDB7DEB791
:1029600062970FB6F894DEBF0FBECDBF888B7A8B0F
:10297000698B89E08F8781C09F858889692F0E9434
:10298000841389899A89CC01A0E0B0E0BC01CD0113
:102990000E94FD03DC01CB018B879C87AD87BE873E
:1029A0006B857C858D859E8520E030E04AEF54E480
:1029B0000E941F02DC01CB018F839887A987BA8709
:1029C0006F81788589859A8520E030E040E85FE373
:1029D0000E94790388232CF481E090E09E838D830C
:1029E0003FC06F81788589859A8520E03FEF4FE76A
:1029F00057E40E94190318164CF56B857C858D856C
:102A00009E8520E030E040E251E40E941F02DC019C
:102A1000CB01BC01CD010E944900DC01CB019E83AA
:102A20008D830FC088EC90E09C838B838B819C818D
:102A30000197F1F79C838B838D819E8101979E8303
:102A40008D838D819E81009769F714C06F81788591
:102A500089859A850E944900DC01CB019E838D8384
:102A60008D819E819A83898389819A810197F1F76B
:102A70009A8389838F8581508F878F8588230CF077
:102A80007BCF62960FB6F894DEBF0FBECDBFCF915D
:102A9000DF910895DF93CF93CDB7DEB7A3E5B0E024
:102AA000E3E5F0E08081877F8C93A3E5B0E0E3E588
:102AB000F0E0808180648C93A9E5B0E0E9E5F0E086
:102AC00080818D7F8C93A9E5B0E0E9E5F0E080811D
:102AD0008E7F8C93ECE5F0E01082A3E5B0E0E3E5B7
:102AE000F0E08081887C8C93A3E5B0E0E3E5F0E042
:102AF000808182628C93CF91DF910895DF93CF9391
:102B0000CDB7DEB7AFE4B0E0EFE4F0E080818E7FD8
:102B10008C93AFE4B0E0EFE4F0E0808182608C93CE
:102B2000AEE4B0E0EEE4F0E0808188608C93AEE447
:102B3000B0E0EEE4F0E0808180618C93AFE4B0E03F
:102B4000EFE4F0E080818F7E8C93AFE4B0E0EFE4BF
:102B5000F0E080818F7B8C93AFE4B0E0EFE4F0E0B5
:102B6000808180628C93AFE4B0E0EFE4F0E080819C
:102B700080688C93E6E4F0E08FE19EE491838083AB
:102B8000EAE4F0E08CED95E091838083AEE4B0E080
:102B9000EEE4F0E08081887F8C93AEE4B0E0EEE478
:102BA000F0E0808182608C93CF91DF910895DF9374
:102BB000CF9300D0CDB7DEB79A838983EAE4F0E003
:102BC00089819A81918380830F900F90CF91DF91BB
:102BD0000895DF93CF930F92CDB7DEB78983E2E5F7
:102BE000F0E0898180830F90CF91DF910895DF938A
:102BF000CF930F92CDB7DEB78983ECE5F0E0898102
:102C000080830F90CF91DF910895DF93CF93CDB75D
:102C1000DEB7A3E5B0E0E3E5F0E08081887F8C9348
:102C2000CF91DF910895DF93CF9300D0CDB7DEB77A
:102C30009A83898389819A81009731F089819A8169
:102C400090937F0280937E020F900F90CF91DF913F
:102C50000895DF93CF9300D0CDB7DEB79A838983F1
:102C600089819A81009731F089819A8190938102BC
:102C7000809380020F900F90CF91DF910895DF93A2
:102C8000CF93CDB7DEB780917E0290917F020097FF
:102C900029F0E0917E02F0917F020995CF91DF91BA
:102CA0000895DF93CF93CDB7DEB7809180029091E6
:102CB0008102009729F0E0918002F091810209954C
:102CC000CF91DF910895DF93CF9300D0CDB7DEB7DA
:102CD00083E390E09A838983E9E2F0E0898180834D
:102CE000E0E4F0E089819A81892F99278083AAE224
:102CF000B0E0EAE2F0E080818B7F8C93E0E4F0E0EA
:102D000086E88083AAE2B0E0EAE2F0E080818061B8
:102D10008C93AAE2B0E0EAE2F0E0808188608C93D4
:102D20000F900F90CF91DF910895DF93CF930F9283
:102D3000CDB7DEB78983EBE2F0E08081829586959E
:102D40008770882F90E0817090700097A1F3ECE27B
:102D5000F0E089818083EBE2F0E0808182958695C6
:102D60008770882F90E0817090700097A1F3ABE29C
:102D7000B0E0EBE2F0E0808180648C930F90CF9123
:102D8000DF910895DF93CF9300D00F92CDB7DEB7D8
:102D90008B831A8219820BC089819A8101969A834A
:102DA000898389819A8123E18838920761F0EBE277
:102DB000F0E08081829586958770882F90E0817001
:102DC0009070009749F389819A8123E188389207AE
:102DD00029F11A821982ECE2F0E08B8180830BC02A
:102DE00089819A8101969A83898389819A8123E1D5
:102DF0008838920761F0EBE2F0E080818295869559
:102E00008770882F90E081709070009749F3ABE253
:102E1000B0E0EBE2F0E0808180648C930F900F9043
:102E20000F90CF91DF910895DF93CF9300D0CDB76E
:102E3000DEB79A8389830BC0E981FA812081898179
:102E40009A8101969A838983822F0E94C216E98112
:102E5000FA818081882381F70F900F90CF91DF91C5
:102E60000895DF93CF930F92CDB7DEB78983EBE25E
:102E7000F0E08081829586958770882F90E0817040
:102E80009070882321F0ECE2F0E0898180830F903C
:102E9000CF91DF910895DF93CF93CDB7DEB7EBE20B
:102EA000F0E080818823DCF7ECE2F0E08081CF91D4
:102EB000DF910895DF93CF93CDB7DEB7ECE2F0E07A
:102EC0008081CF91DF910895DF93CF9300D00F924F
:102ED000CDB7DEB78FEF8B831A8219820BC0898141
:102EE0009A8101969A83898389819A8123E188381E
:102EF000920729F0EBE2F0E08081882384F7898152
:102F00009A8123E18838920721F0ECE2F0E0808199
:102F10008B83ECE2F0E080810F900F900F90CF91C7
:102F2000DF910895DF93CF9300D00F92CDB7DEB736
:102F300089837B836A838981833080F48A819B8142
:102F4000009761F08981882F90E0880F991FFC011C
:102F5000EE57FD4F8A819B81918380830F900F9064
:102F60000F90CF91DF9108951F920F920FB60F929D
:102F700011242F933F934F935F936F937F938F937E
:102F80009F93AF93BF93EF93FF93DF93CF93CDB70F
:102F9000DEB78091820290918302009729F0E09140
:102FA0008202F09183020995CF91DF91FF91EF9119
:102FB000BF91AF919F918F917F916F915F914F9151
:102FC0003F912F910F900FBE0F901F9018951F9259
:102FD0000F920FB60F9211242F933F934F935F934D
:102FE0006F937F938F939F93AF93BF93EF93FF93D1
:102FF000DF93CF93CDB7DEB78091840290918502A5
:10300000009729F0E0918402F09185020995CF9113
:10301000DF91FF91EF91BF91AF919F918F917F9140
:103020006F915F914F913F912F910F900FBE0F9035
:103030001F9018951F920F920FB60F9211242F9385
:103040003F934F935F936F937F938F939F93AF9330
:10305000BF93EF93FF93DF93CF93CDB7DEB780910C
:10306000860290918702009729F0E0918602F09104
:1030700087020995CF91DF91FF91EF91BF91AF91B9
:103080009F918F917F916F915F914F913F912F9180
:103090000F900FBE0F901F901895DF93CF93CDB771
:1030A000DEB7E1E4F0E08FE08083CF91DF91089517
:1030B000DF93CF93CDB7DEB7A1E4B0E0E1E4F0E079
:1030C0008081877F8C93A1E4B0E0E1E4F0E080812F
:1030D00080618C93E1E4F0E01082CF91DF9108955C
:1030E000DF93CF93CDB7DEB7C254D0400FB6F8947C
:1030F000DEBF0FBECDBF0E94EC060E947E150E946F
:103100006B061AAA19AA1EA61DA61AA619A61EA201
:103110001DA21AA219A21E8E1D8E1A8E198E1E8A2B
:103120001D8A8AE58A8B80E1FE01F396DF01482F34
:103130001D924A95E9F70E946316198A80E690E08D
:103140000E9414178CE890E00E941417188A1F86BA
:1031500045C01E861D8680E00E94AA069AAB89ABF8
:1031600029A93AA988E893E1DC012A9FC0012B9F95
:10317000900D3A9F900D1124892F99278695869559
:1031800098AB8FA72D853E858FA598A9820F931F99
:103190009E878D878F8598898D319105D1F42D85F6
:1031A0003E858FA598A9820F931F9E878D878D8559
:1031B0009E852EE130E0B9010E94921BCB019E87D3
:1031C0008D878D859E8598AB8FA78D859E859CABC1
:1031D0008BAB8F8598890196988B8F878F8598897F
:1031E0008E3191050CF4B5CF1C861B8645C01A861E
:1031F000198682E00E94AA069AA789A729A53AA55E
:1032000088E893E1AC01249FC001259F900D349F75
:10321000900D1124892F99278695869598A78FA3BD
:1032200029853A858FA198A5820F931F9A87898750
:103230008B859C858D319105D1F429853A858FA1A7
:1032400098A5820F931F9A87898789859A852EE191
:1032500030E0B9010E94921BCB019A87898789854A
:103260009A8598A78FA389859A8598AF8FAB8B8510
:103270009C8501969C878B878B859C858E319105DB
:103280000CF4B5CF18861F8245C01E821D8284E0D3
:103290000E94AA069AA389A329A13AA188E893E1EA
:1032A000DC012A9FC0012B9F900D3A9F900D1124A5
:1032B000892F99278695869598A38F8F2D813E819A
:1032C0008F8D98A1820F931F9E838D838F81988508
:1032D0008D319105D1F42D813E818F8D98A1820F82
:1032E000931F9E838D838D819E812EE130E0B901F5
:1032F0000E94921BCB019E838D838D819E8198A31A
:103300008F8F8D819E819CAF8BAF8F819885019629
:1033100098878F838F8198858E3191050CF4B5CF76
:103320001C821B8247C01A82198286E00E94AA066C
:103330009A8F898F298D3A8D88E893E1AC01249F7B
:10334000C001259F900D349F900D1124892F99273E
:1033500086958695988F8F8B29813A818F89988D54
:10336000820F931F9A8389838B819C818D31910574
:10337000E1F429813A818F89988D820F931F9A8376
:10338000898389819A812EE130E0B9010E94921BE4
:10339000CB019A83898389819A81988F8F8B8981C8
:1033A0009A81FE01FF96918380838B819C81019697
:1033B0009C838B838B819C818E3191050CF4B3CFE0
:1033C0002FA538A98BA59CA58217930788F52FA553
:1033D00038A98FA198A58217930750F52FA538A972
:1033E0008BA19CA18217930718F52FA538A98F8D63
:1033F00098A182179307E0F42FA538A98B8D9C8D97
:1034000082179307A8F42FA538A98F89988D821762
:10341000930770F42FA538A98B899C89821793078D
:1034200038F486E10E94C81A82EB90E00E941417DB
:103430002FA138A58FA598A98217930788F52FA1EA
:1034400038A58BA59CA58217930750F52FA138A509
:103450008BA19CA18217930718F52FA138A58F8DFA
:1034600098A182179307E0F42FA138A58B8D9C8D2E
:1034700082179307A8F42FA138A58F89988D8217FA
:10348000930770F42FA138A58B899C898217930725
:1034900038F484E40E94C81A8BED90E00E9414175F
:1034A0002F8D38A18FA598A98217930788F52F8DA6
:1034B00038A18BA59CA58217930750F52F8D38A1B5
:1034C0008FA198A58217930718F52F8D38A18BA18E
:1034D0009CA182179307E0F42F8D38A18B8D9C8DD2
:1034E00082179307A8F42F8D38A18F89988D8217A2
:1034F000930770F42F8D38A18B899C8982179307CD
:1035000038F480E70E94C81A84E091E00E94141702
:103510002F89388D8FA598A98217930708F016CEAA
:103520002F89388D8BA59CA58217930708F00ECEA6
:103530002F89388D8FA198A58217930708F006CEA2
:103540002F89388D8BA19CA18217930708F0FECD9F
:103550002F89388D8F8D98A18217930708F0F6CDAB
:103560002F89388D8B8D9C8D8217930708F0EECDB7
:103570002F89388D8B899C898217930708F0E6CDB7
:103580008DE90E94C81A8EE291E00E941417DECDE8
:10359000DF93CF93CDB7DEB761970FB6F894DEBF58
:1035A0000FBECDBF898B8989853B08F093C089897F
:1035B000882F90E0A0E0B0E028EE33E040E050E05B
:1035C000BC01CD010E94731BDC01CB0124EB30E078
:1035D00040E050E0BC01CD010E94B91BDA01C901F5
:1035E00089519C4F988B8F878F8598890E94D7151A
:1035F00080E090E0A8E4B3E48B879C87AD87BE872A
:103600006B857C858D859E8520E030E04AEF54E413
:103610000E941F02DC01CB018F839887A987BA879C
:103620006F81788589859A8520E030E040E85FE306
:103630000E94790388232CF481E090E09E838D839F
:103640003FC06F81788589859A8520E03FEF4FE7FD
:1036500057E40E94190318164CF56B857C858D85FF
:103660009E8520E030E040E251E40E941F02DC0130
:10367000CB01BC01CD010E944900DC01CB019E833E
:103680008D830FC088EC90E09C838B838B819C8121
:103690000197F1F79C838B838D819E8101979E8397
:1036A0008D838D819E81009769F714C06F81788525
:1036B00089859A850E944900DC01CB019E838D8318
:1036C0008D819E819A83898389819A810197F1F7FF
:1036D0009A83898361960FB6F894DEBF0FBECDBF83
:1036E000CF91DF910895629FD001739FF001829F77
:1036F000E00DF11D649FE00DF11D929FF00D839F81
:10370000F00D749FF00D659FF00D9927729FB00D1D
:10371000E11DF91F639FB00DE11DF91FBD01CF0130
:1037200011240895AA1BBB1B51E107C0AA1FBB1F90
:10373000A617B70710F0A61BB70B881F991F5A953D
:10374000A9F780959095BC01CD01089597FB092EAE
:1037500007260AD077FD04D0E5DF06D000201AF452
:10376000709561957F4F0895F6F7909581959F4FDD
:103770000895A1E21A2EAA1BBB1BFD010DC0AA1FB2
:10378000BB1FEE1FFF1FA217B307E407F50720F0CA
:10379000A21BB30BE40BF50B661F771F881F991F45
:1037A0001A9469F760957095809590959B01AC018E
:1037B000BD01CF0108952F923F924F925F926F9279
:1037C0007F928F929F92AF92BF92CF92DF92EF92B1
:1037D000FF920F931F93CF93DF93CDB7DEB7CA1B32
:1037E000DB0B0FB6F894DEBF0FBECDBF09942A885D
:1037F000398848885F846E847D848C849B84AA8405
:10380000B984C884DF80EE80FD800C811B81AA8191
:10381000B981CE0FD11D0FB6F894DEBF0FBECDBF5C
:08382000ED010895F894FFCFBB
:1038280048454C4C4F2C207468697320697320619B
:1038380075746F6D6174696320747261636B696E0E
:10384800672073797374656D200D0A00666F7220A6
:10385800736F6C61722070616E616C206279207583
:1038680073696E6720736D616C6C204C4452200D37
:103878000A0074686520616E676C65206F66207346
:103888006F6C61722070616E656C206973203232D2
:1038980020646567726565200D0A0074686520619B
:1038A8006E676C65206F6620736F6C617220706143
:1038B8006E656C20697320363820646567726565AB
:1038C800200D0A0074686520616E676C65206F665C
:1038D80020736F6C61722070616E656C2069732053
:1038E80031313220646567726565200D0A0074689D
:1038F8006520616E676C65206F6620736F6C6172FE
:103908002070616E656C20697320313537206465DD
:1039180067726565200D0A000000000000000000C5
:10392800000102020303030304040404040404045E
:10393800050505050505050505050505050505052F
:10394800060606060606060606060606060606060F
:1039580006060606060606060606060606060606FF
:1039680007070707070707070707070707070707DF
:1039780007070707070707070707070707070707CF
:1039880007070707070707070707070707070707BF
:1039980007070707070707070707070707070707AF
:1039A800080808080808080808080808080808088F
:1039B800080808080808080808080808080808087F
:1039C800080808080808080808080808080808086F
:1039D800080808080808080808080808080808085F
:1039E800080808080808080808080808080808084F
:1039F800080808080808080808080808080808083F
:103A0800080808080808080808080808080808082E
:103A1800080808080808080808080808080808081E
:103A28003738392F3435362A3132332D63303D2B30
:083A380000010203040506076A
:00000001FF
